:020000040000FA
:100000009002002065010000690100006B01000002
:1000100000000000000000000000000000000000E0
:100020000000000000000000000000006D01000062
:1000300000000000000000006F01000071010000DE
:100040007301000073010000730100000000000054
:10005000000000000000000073010000000000002C
:100060000000000000000000150500000000000076
:10007000730100007301000073010000F50300002C
:1000800031040000730100007301000073010000DF
:100090007301000073010000730100007301000090
:1000A00073010000210800007301000073010000CB
:1000B0009D060000910600008506000079060000FC
:1000C00000F002F800F03EF812A030C808382418FA
:1000D0002D18AC4201D100F035F80FCCA246AB464A
:1000E0000CA730CF2D1B083F3F197C427F1E544484
:1000F0002D090426F441641EAC4201D300F022F81D
:100100000126334200D0FB1A3343984754465D46DC
:10011000DFE70000DC0D0000EC0D00007047000080
:100120000023002400250026103A01D378C1FBD813
:10013000520700D330C100D50B6070471FB51FBDFB
:1001400010B510BD00F023F91146FFF7F7FF00F0DE
:10015000C1FB00F03BF903B4FFF7F2FF03BC00F072
:1001600041F9000006480047FEE7FEE7FEE7FEE72C
:10017000FEE7FEE703480449024A044B70470000CB
:10018000C10000009000002090020020900000209C
:10019000002203098B4273D3030A8B4258D3030B0B
:1001A0008B423CD3030C8B4221D312E003460B431A
:1001B0007FD4002243088B4274D303098B425FD360
:1001C000030A8B4244D3030B8B4228D3030C8B428C
:1001D0000DD30902FF2212BA030C8B4202D3121272
:1001E000090265D0030B8B4219D300E0090AC30B47
:1001F0008B4201D3CB03C01A5241830B8B4201D3F4
:100200008B03C01A5241430B8B4201D34B03C01ADC
:100210005241030B8B4201D30B03C01A5241C30A54
:100220008B4201D3CB02C01A5241830A8B4201D3C5
:100230008B02C01A5241430A8B4201D34B02C01AAF
:100240005241030A8B4201D30B02C01A5241CDD254
:10025000C3098B4201D3CB01C01A524183098B429F
:1002600001D38B01C01A524143098B4201D34B0188
:10027000C01A524103098B4201D30B01C01A5241EB
:10028000C3088B4201D3CB00C01A524183088B4272
:1002900001D38B00C01A524143088B4201D34B005B
:1002A000C01A5241411A00D20146524110467047CD
:1002B0005DE0CA0F00D04942031000D340425340D2
:1002C0009C46002203098B422DD3030A8B4212D392
:1002D0008901FC2212BA030A8B420CD389019211C4
:1002E0008B4208D3890192118B4204D389013AD001
:1002F000921100E08909C3098B4201D3CB01C01AD6
:10030000524183098B4201D38B01C01A52414309E8
:100310008B4201D34B01C01A524103098B4201D3D6
:100320000B01C01A5241C3088B4201D3CB00C01A43
:10033000524183088B4201D38B00C01A5241D9D25B
:1003400043088B4201D34B00C01A5241411A00D2DC
:1003500001465241104663465B1001D34042002BD8
:1003600000D54942704763465B1000D3404201B557
:100370000449002802DC491C084000E00846C04649
:10038000C04602BDFFFFFF7F70477047704775464C
:1003900000F024F8AE46050069465346C008C00088
:1003A000854618B020B5FFF7E5FE60BCB6460026CE
:1003B0000027C0C5C0C5C0C5C0C5C0C5C0C5C0C573
:1003C000C0C5403D490849008D46704710B50446F8
:1003D000C046C0462046FFF7BEFE10BD004870472D
:1003E0000000002001491820ABBEFEE726000200F5
:1003F00070470000014801684160704738000040C4
:100400004F48016820220A430260012081071B4AED
:100410000A6400228A614961044A4A6302220A602E
:100420000A689207FCD408607047C04611001000AB
:10043000044801688A0602D5034A0123137089B271
:100440004160704738200040880000203C48016827
:1004500040220A4302600848084901640321490711
:1004600041610221016001688907FCD4012101601A
:10047000080403490860704700200040DF2E000098
:1004800000E100E0B0B50C48FF2141600F214A02B5
:100490000A494A600A4A13785B1CDCB2032C00D973
:1004A00000235CB2A40007A52C590C601370D9B2CC
:1004B000084A515C0160B0BD2440044024600440FF
:1004C000710000200002000000040000000800008D
:1004D000001000007C0000206348F0210160604AA9
:1004E00011600A49FF220A604A620F214902016035
:1004F000416201200102064A13680B431360116236
:1005000040021168014311601062704704400440CA
:1005100004A004400120C003274908607047C0467A
:1005200001204105064A13680B4313601A490E2245
:100530000A624A6200020A6802430A607047C046C3
:1005400000E005400120C003134948600A682023E9
:1005500013430B604A680242FCD070470120C0037D
:100560000D4948600A68102313430B604A68024231
:10057000FCD070470121CA0307494A60002801D016
:10058000022000E004200B6803430B60486810421F
:10059000FCD0C868C0B27047008001400121CA0386
:1005A00005490A60486008681042FCD008680221CA
:1005B000014048424841704704800140F0B583B093
:1005C000F025E9430191264E30680840306070689C
:1005D000244908407060244F3868284338607D62A1
:1005E0000124204600F010F9301F0068029038689E
:1005F00001990840386078681A4908407860306886
:10060000284330607562204600F0FEF8381F00680D
:10061000284002990906090F4018FF224240134B57
:100620001978914216D1124A1378DC080020182C50
:100630000ED85B1C1370DAB2322A09D10D4B1A782E
:100640001970914204D04A40114000D10A46104628
:1006500003B0F0BD0649002008701A7003B0F0BD69
:1006600004800440FF00FFFF046004407400002089
:10067000760000207500002001480B49016070479A
:100680002040044001480849016070472060044050
:100690000148054901607047208004400148024933
:1006A0000160704720A00440FF3F00000648002181
:1006B0000162416201650A22026401604160416198
:1006C000024801607047C04600200440902004406A
:1006D00070B5264D281F00684006410F244C0429A0
:1006E00020D87D200002C0467944097949008F4412
:1006F00002171113090028461038006880070ED52C
:1007000020460DE028460C380068C004204607D576
:10071000184805E0184803E00120C00300E017482E
:100720001749086028684007C00E16A10958144EE2
:10073000306800F0D9FA30602968090704D5400014
:10074000032100F0D1FA306031683C48154A9142EB
:1007500004D80246A14205D9293004E002461932E4
:10076000A142F9D810461049086070BD100006403B
:10077000006CDC020090D0030024F400001BB700E2
:1007800060000020010000000200000004000000E2
:1007900008000000100000002000000040000000E1
:1007A00080000000FF356E01002006400A48014627
:1007B00010390A6802239A430A60021F002111605F
:1007C00013685B065B0FFBD10160026808239A4344
:1007D000026001627047C0461000064010B581B04B
:1007E00000280CD00749144A0A60AF23DB000093AD
:1007F000009B5C1E0094002BFAD1401EF4D101B086
:1008000010BDC0460C00014081B00E214143009153
:100810000098411E00910028FAD101B070470000F5
:1008200004480549C1600168044A0A4304218A4317
:100830000260704700000140AA55FA5A0000FA5AB7
:10084000F0B581B01D4614460F460646FFF77AFE06
:10085000FE203040FFF7A2FE01281AD03846FFF7ED
:100860009DFE012815D0FFF76DFE3046FFF796FE7E
:1008700001280ED0022D08D30020FFF77BFE207048
:10088000641C6D1EA8B20128F6D80120FFF772FE85
:100890002070FFF763FE01B0F0BDF0B581B01C46DB
:1008A00015460E460746FFF74DFE3846FFF776FE23
:1008B000012803D1FFF752FE01B0F0BD3046FFF72B
:1008C0006DFE0128F6D02004F4D028786D1C641E3B
:1008D000F5E700008AB0EC48EC490160FFF766FFDD
:1008E000FFF7F6FEFFF7E2FEE94801680127B9438A
:1008F0000160FFF7F1FDFFF713FEFFF781FDE5480B
:10090000016839430222019291430160B907E2482C
:10091000086400258D610D6002910F603A02DF4B83
:100920001846203801681143016003921A60FFF7EE
:100930008DFDA12408AE20462946324604973B4649
:10094000FFF77EFF3078182800D32846D449087076
:100950002046049932460B46FFF772FF30783C2858
:1009600000D32846CF490870D04BD14DD14E039FBC
:1009700002E00420D049087018780028FCD0002438
:100980001C70FFF77FFD286800280CD0401E2860EF
:100990007D21C900FFF7FCFB3846F3308142C24895
:1009A00009D8204607E03068002803D0401E306098
:1009B000BD4800E00020C24A02998861BE48047820
:1009C000E61E012E06D8BD480078002802D0B348A4
:1009D000476001E0B14807601068401C1060C00823
:1009E0007D2832D300201060B64B1978491C19704D
:1009F00049B23C2905DBB3490870B34B1978491C4F
:100A00001970B14909563C2905DBAF490870AF4B55
:100A10001978491C1970AD490956182901DBAB49F1
:100A20000870002C11D19E480078A84909788142AD
:100A30000BD19C480078A4490978814205D1A1488E
:100A40000078002801D1A248286007943C46F4347D
:100A500010680690A042049800D3002097490870BF
:100A60003746022E8E4800D398480078059040B251
:100A70000A25294600F05AF90646C0B29549085C95
:100A800095490870022F874800D38F48077878B2BD
:100A9000294600F04BF9C1B28E4A515C8E4B9970D9
:100AA0006843381AC0B2105CD8706E430598801B3A
:100AB000C0B2105C8021014359700698A042039F88
:100AC0007B4D7C4E079B08D3FD201840012855D153
:100AD0008149481C002202700A70002B0ED07F4909
:100AE0000868401C08607E49884207D3002072498C
:100AF00008707A49086038462C303060FFF75EFD98
:100B0000014611391729694B04D801228A407549D9
:100B10000A4202D1812800D02EE7002129606F4AC5
:100B200011603A462C323260C0B2272818DC1128F6
:100B30002ED0182800D01FE75F480078401E0328F9
:100B400000D919E77844007940008744018A647627
:100B50005E480078401C41B2172934DD002032E0A5
:100B600028281DD0812800D006E7534800780328A4
:100B700000D1FEE600282BD10320FBE6002BBDD0E0
:100B80005549C81C891C042BA4D0022BA2D0A6E76F
:100B900049480078012819D000283AD10120E9E617
:100BA00045480078401E032800D9E5E678440079DE
:100BB00040008744015E384C44480078401E41B2F2
:100BC000002900D5172041490870D5E60198D1E6E3
:100BD000394801703248007809AD2870A0240126F8
:100BE00020462A463346FFF758FE0A200790FFF7B3
:100BF000F5FD2C4800782870204631462A462C4DB9
:100C000033462C4EFFF749FE0798FFF7E7FD274BC9
:100C1000B2E60020AEE622480078401C41B2172917
:100C200008DD002006E01E480078401E41B2002981
:100C300000D517201A4908709EE61A480078401C13
:100C400042B23B2A00DC01461648017094E6154882
:100C50000078401E41B2002900D53B2011490870A0
:100C60008AE619480078401C41B23B2908DD002083
:100C700006E015480078401E41B2002900D53B200F
:100C80001149087078E6C046000001400000FA5A99
:100C90001C00064000200440B80B000024A00440C3
:100CA0006400002065000020DC05000088000020B2
:100CB000680000206C0000207200002070000020FE
:100CC00078000020800000207700002073000020C2
:100CD00088130000DE0E00007C000020840000204D
:100CE000307500008100800043088B421AD3002237
:100CF00003098B4279D3030A8B425ED3030B8B42E9
:100D000042D3030C8B4227D30902FF2212BA030CF1
:100D10008B4202D31212090203D0030B8B4233D34E
:100D20001AE0D3E0411A8041401C704703460B4350
:100D300071D443088B42F5D3002203098B4254D36C
:100D4000030A8B4239D3030B8B421DD3030C8B4216
:100D500002D394466EE0090AC30B8B4201D3CB0346
:100D6000C01A5241830B8B4201D38B03C01A5241EC
:100D7000430B8B4201D34B03C01A5241030B8B42EE
:100D800001D30B03C01A5241C30A8B4201D3CB02D9
:100D9000C01A5241830A8B4201D38B02C01A5241BE
:100DA000430A8B4201D34B02C01A5241030A8B42C1
:100DB00001D30B02C01A5241CDD2C3098B4201D3D9
:100DC000CB01C01A524183098B4201D38B01C01A57
:100DD000524143098B4201D34B01C01A52410309CE
:100DE0008B4201D30B01C01A5241C3088B4201D37D
:100DF000CB00C01A524183088B4201D38B00C01A2A
:100E0000524143088B4201D34B00C01A5241411A50
:100E1000524110007047CA0F00D04942031000D35E
:100E20004042534000229C4603098B422DD3030AC3
:100E30008B4212D38901FC2212BA030A8B420CD3D3
:100E4000890192118B4208D3890192118B4204D3FC
:100E5000890137D0921100E08909C3098B4201D37F
:100E6000CB01C01A524183098B4201D38B01C01AB6
:100E7000524143098B4201D34B01C01A524103092D
:100E80008B4201D30B01C01A5241C3088B4201D3DC
:100E9000CB00C01A524183088B4201D38B00C01A89
:100EA0005241D9D243088B4201D34B00C01A524160
:100EB000411A00D201465241104663465B1000D3EE
:100EC0004042704763465B1000D3404201B50021A9
:100ED000004201D0C9430846C046C04602BD3F0695
:100EE0005B4F666D7D077F6F777C395E797171002E
:100EF000000F000000000020900200002001000010
:020000040000FA
:047FFC005555AAAA83
:04000005000000C136
:00000001FF
